:020000041000EA
:1000000000B5324B212058609868022188439860DF
:10001000D860186158612E4B002199600221596106
:100020000121F02299502B49196001219960352056
:1000300000F044F80222904214D00621196600F024
:1000400034F8196E01211966002018661A6600F04E
:100050002CF8196E196E196E052000F02FF8012189
:100060000842F9D1002199601B49196000215960AB
:100070001A491B48016001219960EB211966A021F2
:10008000196600F012F800219960164914480160C1
:100090000121996001BC002800D000471248134993
:1000A000086003C880F30888084703B5996A0420EC
:1000B0000142FBD001200142F8D103BD02B5186610
:1000C0001866FFF7F2FF186E186E02BD00000240BE
:1000D000000000180000070000035F00212200005C
:1000E000F4000018222000A00001001008ED00E03C
:1000F00000000000000000000000000074B24E7A12
:1001000000200420F7010010C3010010C5010010F9
:10011000C1010010C1010010C1010010C101001097
:10012000C1010010C1010010C1010010C701001081
:10013000C1010010C1010010C9010010CB01001065
:10014000CD010010CD010010CD010010CD01001037
:10015000CD010010CD010010CD010010CD01001027
:10016000CD010010CD010010CD010010CD01001017
:10017000CD010010CD010010CD010010CD01001007
:10018000CD010010CD010010CD010010CD010010F7
:10019000CD010010CD010010CD010010CD010010E7
:1001A000CD010010CD010010CD010010CD010010D7
:1001B000CD010010CD010010CD010010CD010010C7
:1001C00000BE00BE00BE00BE00BE00BE00F04BF888
:1001D000103800BEF2EB8871100D0110340D0110C3
:1001E0003402001090A31AE700202149086006C8D5
:1001F00081F3088810471F48006800282FD10DA4FC
:100200000ECC002902D000F012F8F9E71A491B4A77
:10021000002000E001C19142FCD1194988471949E9
:1002200088471949884700BEFDE701C901C29A42C3
:10023000FBD37047340D0110C0000020500E002089
:10024000C41A01100000042000000420C41A011088
:1002500000100420001004200000000070470B482C
:100260000AF040FC0047EFF30580C0B27047000081
:1002700008ED00E0000000D0500E00202C1D0020F2
:10028000818B0010391D0010B18C001057560000F2
:1002900006005250ABB360536C0A01100600525076
:1002A000861C03027C0A0110060052505422A29DB3
:1002B000900A011005005250DE65F468C41A01105E
:1002C000F8B5C0460448054B10B5834203D0044B33
:1002D000002B00D0984710BD500E0020500E00207B
:1002E0000000000006480749091A8B10C90FC918F9
:1002F00010B5491003D0044B002B00D0984710BD17
:10030000500E0020500E00200000000010B5074CD9
:100310002378002B09D1FFF7D5FF054B002B02D026
:10032000044800E000BF0123237010BD580F0020D7
:1003300000000000B8FE0010054B10B5002B03D0E4
:100340000449054800E000BFFFF7CCFF10BDC046E0
:10035000000000005C0F0020B8FE00100123D02236
:1003600083401206936153619361704710B5012475
:1003700023008340180023008B404449097800295A
:1003800044D1D0210906144200D06BE08861D0210D
:1003900009068B614B618B61940700D56BE0886126
:1003A000D02109068B614B618B6154072FD4886182
:1003B000D02109068B614B618B6114072FD48861B2
:1003C000D02109068B614B618B61D4062FD48861E3
:1003D000D02109068B614B618B6194062FD4886113
:1003E000D02109068B614B618B6154062FD4886143
:1003F000D02152B209068B614B618B61002A2FDB41
:100400008861D022120693615361936110BD4861E7
:10041000D02109068B614B618B611407CFD54861F0
:10042000D02109068B614B618B61D406CFD5486121
:10043000D02109068B614B618B619406CFD5486151
:10044000D02109068B614B618B615406CFD5486181
:10045000D02152B209068B614B618B61002ACFDA41
:100460004861CEE74861D02109068B614B618B6101
:10047000940700D493E74861D02109068B614B6152
:100480008B61540700D492E7C1E7C046441A0020AC
:1004900010B5012423008340180023008B408049BD
:1004A0000978002900D092E0D0210906144200D03A
:1004B000D8E08861D02109068B614B618B6194077C
:1004C00000D5D8E08861D02109068B614B618B6132
:1004D000540700D57CE08861D02109068B614B610F
:1004E0008B61140700D57CE08861D02109068B61FF
:1004F0004B618B61D40600D57CE08861D021090670
:100500008B614B618B61940600D57CE08861D021C2
:1005100009068B614B618B61540600D57CE08861D4
:10052000D02109068B614B618B61140600D57CE0FC
:100530008861D02109068B614B618B61D40500D5A0
:100540007CE08861D02109068B614B618B61940549
:1005500000D57CE08861D02109068B614B618B61FD
:10056000540500D57CE08861D02109068B614B6180
:100570008B61140500D588E08861D02109068B6164
:100580004B618B61D40400D581E08861D0210906DC
:100590008B614B618B61940400D57AE08861D02136
:1005A00009068B614B618B61540400D573E088614F
:1005B000D02112B209068B614B618B61002A00DAEF
:1005C0006BE08861D022120693615361936110BD84
:1005D0004861D02109068B614B618B61140700D4FF
:1005E00082E74861D02109068B614B618B61D4069B
:1005F00000D482E74861D02109068B614B618B6191
:10060000940600D482E74861D02109068B614B61D2
:100610008B61540600D482E74861D02109068B61C2
:100620004B618B61140600D482E74861D021090632
:100630008B614B618B61D40500D482E74861D02186
:1006400009068B614B618B61940500D482E7486198
:10065000D02109068B614B618B61540500D482E780
:10066000486181E74861D02109068B614B618B614C
:10067000940700D426E74861D02109068B614B61BD
:100680008B61540700D426E7A2E7486175E748610B
:100690007CE7486183E748618AE7486192E7C046A2
:1006A000441A00200123F0B51F008B40874018003A
:1006B0000E4B1B78002B17D1D0210126090606E02E
:1006C00001338F61886148618861202B0CD0340030
:1006D00015009C402540AC42F2D101334F61886146
:1006E00048618861202BF2D1F0BDC046441A002039
:1006F0007047C04682B0F0B5C64600B596B00992C4
:100700001D930CAA00239046A94FAA4E3D1D0790A9
:1007100008910A930B930C930D930E930F93143738
:100720002C78079823000899099A05F0DDFF3378A3
:10073000002B00D09BE0002803D021000AA804F081
:1007400021F923001D981E991F9A06F0EFF83378BF
:10075000002B00D08BE0002803D021000AA804F071
:1007600011F90135AF42DBD10B9B0A9C0193181D97
:10077000002C00DC07E1002303E001339C4200D1A0
:1007800001E1C25C002AF8D1210004F06BFA0130CB
:10079000844200D0FEE008220AA914A80BF004F954
:1007A0000B9B04AC191D20000A9A0193002301F051
:1007B00067FE4346220003CA03C33378002B56D199
:1007C0000C9A63681498159904F064FA002800D113
:1007D000E7E0794C27000837257907982B0008991E
:1007E000099A05F081FF3378002B40D1002803D00F
:1007F00029000EA804F0C6F82B001D981E991F9A18
:1008000006F094F83378002B31D1002803D029006A
:100810000EA804F0B7F80134A742DDD1674B0E985B
:100820000F990CCB04F036FA002800D1A4E019236C
:1008300007980899099A05F057FF3378002B16D1CD
:10084000002824D01A2307980899099A05F04CFF2C
:100850003378002B0BD100282BD01D981E991F9A9E
:1008600006F086F93378002B01D1002833D10EA889
:1008700004F01EFD404604F01BFD0AA804F018FD1C
:1008800016B004BC9046F0BC08BC02B0184719234F
:100890001D981E991F9A06F049F83378002BE6D16F
:1008A0000028CFD14648012101F00CFC012008F0BE
:1008B000FFF91A231D981E991F9A06F037F833780E
:1008C000002BD4D10028C8D13E48012101F0FAFB09
:1008D000012008F0EDF91093119312931393209BCC
:1008E00010A81B6802AD1900019304F007FA209BC1
:1008F00010A85B6812AC1900019304F0FFF9209B6B
:1009000010A89B681900019304F0F8F9082210A9B7
:1009100014A80BF049F8119B2800191D109A019397
:10092000002301F005FE23002A0003CA03C3337825
:10093000002B0CD1129A6B681498159904F076FC70
:10094000002812D0209BDB68013B032B06D8200037
:1009500004F0A2FC10A804F09FFC88E71A480121CB
:1009600001F0B0FB012008F0A3F91848012101F0C3
:10097000A9FB012008F09CF91548012101F0A2FB18
:10098000012008F095F91348012101F09BFB01209B
:1009900008F08EF91048012101F094FB012008F0C5
:1009A00087F90E48012101F08DFB012008F080F944
:1009B000C4020110441A0020A00001102C040110F0
:1009C0005401011080010110E8010110AC01011077
:1009D000F400011090FF00102400011060000110CD
:1009E0001A2907D8054B8900CA58054BCB58026015
:1009F0004360704700230022F9E7C046B8FE0010AC
:100A000024FF001070B505000C1E09D004390B68D6
:100A10001A00083253401BD5002A19DA01F0F6FDFE
:100A2000286800280ED0021F136807211E008E437D
:100A3000311E09D0190008394B400BD5002909DBBC
:100A400001F0E4FD2C6070BD043101F017FEF9E700
:100A50000A60E5E71160F5E782B0F0B5DE4657467B
:100A60004E464546E0B599B02393269B05909B469C
:100A70000691079200213C2227980AF08FFF00215F
:100A80003C2209A80AF08AFF5B466A46029324AB1F
:100A900003CB03C2239B05980699079AFFF72AFE0A
:100AA000C24C23789A46002B00D012E114229046C3
:100AB000BF4B1F1D9844002304933E7805983300D4
:100AC0000699079A05F010FE23780500002B00D048
:100AD000FFE0002813D03300079A0598069906F026
:100AE000F5FA23780200002B00D0F2E0310009A8CB
:100AF00006F042F82378002B00D0EAE0AA46330043
:100B000023982499259A05F011FF2378050099462A
:100B1000002B00D0DDE000280AD05B4631001A68C7
:100B200009A806F029F82378002B00D0D1E004951D
:100B300001374745C1D1049B002B00D1F9E0534652
:100B4000002B00D1FCE0022330216A4614AD52187C
:100B5000137028002399249A259B06F06BFC5946B4
:100B600017A8FFF74FFF934B0DAE9A460023B046F0
:100B70005646AA460493357905982B000699079A9C
:100B800005F0B2FD23780700002B00D0CEE000284E
:100B900013D02B00079A0598069906F097FA237848
:100BA0000200002B00D0C1E02900404605F0E4FF20
:100BB0002378002B00D0B9E0B9462B002398249964
:100BC000259A05F0B3FE23780700002B00D0ADE096
:100BD000002814D0249A259B5046239906F02AFC1D
:100BE000594617A8FFF70EFF5B4629001A684046D2
:100BF00005F0C2FF2378002B00D097E004976E4BDE
:100C000001369E42B7D1049B46465546002B00D183
:100C100098E04B46002B00D1B6E0022340216A4603
:100C20005218137028002399249A259B06F002FC81
:100C3000594617A8FFF7E6FE002398465F4B9946F2
:100C40002B00454698464B465B191F7905983B009B
:100C50000699079A05F048FD2378002B00D077E02D
:100C6000002808D0192F00D174E01A2F00D180E09D
:100C7000182F00D18EE03B0023982499259A05F087
:100C800055FE2378002B63D1002813D0192F6CD088
:100C90001A2F00D17AE0182F02D15B461B681393FC
:100CA00040462399249A259B06F0C4FB594617A871
:100CB000FFF7A8FE0135032DC5D109A93C222798CD
:100CC0000AF072FE3C22002109A845460AF066FEA1
:100CD00001E014AD0DAE09A804F0A8FC300004F04A
:100CE000A5FC280005F026F9179800280ED0021F51
:100CF000136807211C008C43211E11D019000839EC
:100D00004B4011D500290FDB01F080FC19B03CBC31
:100D100090469946A246AB46F0BC08BC02B01847C4
:100D2000043101F0ABFCF1E71160EFE746465546B0
:100D3000D1E730226B469B18049A14AD1A7012E763
:100D4000012301E740226B469B18049A1A7073E74F
:100D50004546C0E7192305980699079A06F0B6F9A3
:100D60002378002BF4D1119085E75B461B68119323
:100D700096E71A2305980699079A06F0A7F92378AB
:100D8000002BE5D1129076E7012347E75B461B680D
:100D9000129385E7182305980699079A06F096F9A5
:100DA0002378002BD4D1139065E7C046441A002065
:100DB000C4020110A0000110A80001108803011056
:100DC000F0B5DE464E46454657460400E0B58FB0C6
:100DD000049318AB1B780392894600686168A26887
:100DE000059306F047FBC04D2B78002B17D1002848
:100DF00000DA6CE00100022001F0A6F92B78002B4C
:100E00000DD1484512DB4B46002B0FDB237B022222
:100E10001900914313D0013B012B00D894E00FB08F
:100E20003CBC90469946A246AB46F0BD0121AF4876
:100E300001F048F9237B022219009143EBD120688D
:100E40006168A26806F016FB2B780690002BE6D1AD
:100E5000236800269846191E00DC7DE1A44B474616
:100E60009A46D0231B069B46B14200D8C9E162686E
:100E7000730094469B199B002A7863445968002AA2
:100E8000CDD100291DD01B7AE06A216B626B984698
:100E900005F04CFD2B78002BC1D1002821D0206813
:100EA0006168A26806F0E6FA2B78002BB7D1069BA2
:100EB000834206D0534603CB01F07AF82B78002BFF
:100EC000ADD10136B74200D146E12168CCE7894A6D
:100ED000C1170023009201930022002302F016F9AB
:100EE0009DE7434620686168A26806F0EFF82B781A
:100EF000002B94D106F0C4FD434620686168A268C7
:100F000006F0E4F82B78002B00D088E7013383400B
:100F10005A46536243461F2B00D9D6E2424601236C
:100F200093404A461A409A4273D04346206861680B
:100F3000A26806F0CBF82B78002B00D06FE70123D6
:100F40005A4683409361AAE7A36B186806F098FDA0
:100F5000A36B586806F094FDA36B986806F090FDAB
:100F600001231800A26B11688840D021090648624D
:100F700018005668B0404862906883404B62D06861
:100F8000C3009B460AF0EEF800225B4B0AF071F8B2
:100F9000804658468A4606910AF0E4F806000F009B
:100FA00002000B00404651460AF0A6F8002823D163
:100FB00042465346300039000AF02BF80022002345
:100FC00006000F0007910AF09FF8002800D083E088
:100FD00000220023404651460AF096F8002874D1BA
:100FE0000022464B300039000AF043F8424653468F
:100FF0000AF090F8002809D001235B425B44984630
:101000005B464246534013D5002A11DB01F0FEFA3D
:1010100005E7434620686168A26806F057F82B7818
:10102000002B00D0FBE6013383405A46536136E77C
:1010300020686168A26806F01DFA2B780790002BE3
:1010400000D0ECE623689A46002B00DC90E1190002
:10105000002306932A4B00279B465646B94200D8E8
:101060002EE262687B009446DB199B002A78634479
:101070005968002A00D0D2E6002920D01B7AE06A05
:10108000216B626B9A4605F051FC2B78002B00D047
:10109000C5E6002836D120686168A26806F0EAF942
:1010A0002B78002B00D0BAE6079B834207D05B4623
:1010B00003CB00F07DFF2B78002B00D0AFE601378B
:1010C000BE4200D156E12168C8E78022120694464C
:1010D000069B63449A4683E7802212069446079B48
:1010E00063441F0074E7C046441A002090030110B7
:1010F00024040110FFFFFF7F00002040000040405B
:10110000240401100093E06A5346216B626B06F0E1
:10111000B5F92B78002B00D081E65346002800DA81
:1011200088E01F2B00D9DFE15246012393404A4655
:101130001A4093426DD0434642461B1A5A4002D58C
:10114000584000D462E71F2B00D94BE201229A409D
:10115000069B934306939EE71923E06A216B626B1B
:1011600005F0E4FB2B78002B00D058E600280ED1C8
:10117000206A06F085FC0123226A03999340D0225D
:10118000120653615362002900D0A4E053611A2370
:10119000E06A216B626B05F0C9FB2B78002B00D055
:1011A0003DE6002811D1606A06F06AFC01231900AF
:1011B000626A9140D022120651615162049900295D
:1011C00000D08AE0A16A8B4053611823E06A216B4A
:1011D000626B05F0ABFB2B78002B00D01FE60028DC
:1011E00015D1A06A06F04CFC0123A26A0599934030
:1011F000D022120653615362002907D15361237B29
:1012000009E63000013903F0E5F908E69361237B34
:1012100001E6434642461B1A5A4002D5584000D4C4
:10122000F4E61F2B00D9DDE101229A40069B13430F
:10123000069330E71F2B00D956E152460123934015
:101240004A461A4093424CD04342089309F08AFF21
:1012500080221206944609908A46089861440C91AF
:1012600009F080FF0A900B9102000B0009980C997D
:1012700009F042FF002823D10A9A0B9B5146099896
:1012800009F0D0FE002200238A460A900D9109F051
:101290003BFF002805D080231B069C460D9A624424
:1012A00092460022D64B51460A9809F0E2FE02000F
:1012B0000B0009980C9909F035FF002800D1A5E62C
:1012C000089B1F2B00D90BE11A0001239340069ABB
:1012D0009A430692DFE6936159E7A16A8B409361D6
:1012E00073E74342089309F03DFF802212069446BB
:1012F00009908A46089861440C9109F033FF0A90DE
:101300000B9102000B0009980C9909F0F5FE0028DA
:1013100023D10A9A0B9B5146099809F083FE0022BB
:1013200000238A460A900D9109F0EEFE002805D0B0
:1013300080231B069C460D9A624492460022B04BC5
:1013400051460A9809F095FE02000B0009980C9985
:1013500009F0E8FE002800D158E6089B1F2B00D9B1
:10136000BEE01A0001239340069A1A43069292E6C1
:10137000002306931923E06A216B626B05F0D6FA0D
:101380002B78002B00D04AE5002822D01923E06AF0
:10139000216B626B06F0A8F92B78002B00D03EE59C
:1013A000039B002800DABCE0002B00D1A7E0192342
:1013B000E06A216B626B06F097F92B78002B00D066
:1013C0002DE51F2800D98CE001238340069A9A431B
:1013D00006921A23E06A216B626B05F0A7FA2B785C
:1013E000002B00D01BE5002821D01A33E06A216BC6
:1013F000626B06F079F92B78002B00D00FE5049B87
:10140000002800DA1DE1002B00D106E11A23E06A72
:10141000216B626B06F068F92B78002B00D0FEE49C
:101420001F285ED801238340069A9A430692182308
:10143000E06A216B626B05F079FA2B78002B00D003
:10144000EDE4002821D01833E06A216B626B06F0CE
:101450004BF92B78002B00D0E1E4059B002800DA43
:1014600046E1002B00D14EE21823E06A216B626B4B
:1014700006F03AF92B78002B00D0D0E41F2830D8A2
:1014800001238340069A9A430692A36BDA68012AE5
:1014900000D19CE0022A00D1B4E0032A00D193E2FB
:1014A000042A00D0A9E203CB069AFFF7FBF82978BB
:1014B000002900D0B3E4A36B9868FEF74FFFAEE4B9
:1014C0003800013903F086F8A9E41F2200234046C2
:1014D0000092019300210022002301F017FE9EE4F8
:1014E00018001F22C117F4E41F2200235046009267
:1014F000019300210022002301F008FE8FE419333C
:10150000E06A216B626B06F0EFF82B78002B00D0BD
:1015100085E41F28E5D801238340069A1A430692E2
:1015200057E7002B00D1F9E11923E06A216B626BC8
:1015300006F0DAF82B788046002B00D06FE44642A4
:10154000079609F00FFE802212069346824630006D
:101550008B44039109F006FE06000F0002000B0009
:101560005046594609F0C8FD002823D132003B00FF
:101570005046039909F056FD002200230F000E008B
:10158000089009F0C1FD002802D080231B06FE1838
:101590004346002B01DD039B9B460022184B310084
:1015A000089809F066FD52465B4609F0B3FD002835
:1015B00000D12BE54346D843079B434000D400E7C6
:1015C000802243461206D34200D41FE5F9E66A465C
:1015D000127E03CBFEF7CAFE2978002900D16AE704
:1015E000FFF71DFC1E001F22D917002330000092B8
:1015F00001930022002301F089FDFFF710FCC04693
:10160000000040406A4603CB128BFEF741FF297869
:10161000002900D14FE7FFF702FC1A33E06A216B83
:10162000626B06F061F82B78002B01D0FFF7F7FB17
:101630001F2800D955E701238340069A1A430692D2
:10164000F5E6002B00D108E11A23E06A216B626BFA
:1016500006F04AF82B788046002B01D0FFF7DFFB1D
:101660004642049609F07EFD802212069346824689
:1016700030008B44039109F075FD06000F00020055
:101680000B005046594609F037FD002823D132009F
:101690003B005046039909F0C5FC002200230F00CF
:1016A0000E00079009F030FD002802D080231B06B1
:1016B000FE184346002B01DD039B9B460022D24BC4
:1016C0003100079809F0D5FC52465B4609F022FD2F
:1016D000002800D19AE44346D843049B434000D4F9
:1016E0009EE6802243461206D34200D48EE497E65B
:1016F000002B54D01823E06A216B626B05F0F4FFD5
:101700002B788046002B01D0FFF789FB43429B4694
:1017100009F028FD0B000491802109068A460390F8
:1017200058469A4409F01EFD06000F0002000B0007
:101730000398514609F0E0FC002823D132003B0019
:101740000398049909F06EFC002200230F000E009C
:10175000059009F0D9FC002802D080231B06FE1852
:101760004346002B01DD049B9A460022A64B310024
:10177000059809F07EFC5346039A09F0CBFC00283B
:1017800000D143E44346D8435B46434000D475E66A
:10179000802243461206D34200D437E46EE6182373
:1017A000E06A216B626B05F09FFF2B788046002B6F
:1017B00001D0FFF734FB43429B4609F0D3FC0B00FA
:1017C0000491802109068A46039058469A4409F0FC
:1017D000C9FC06000F0002000B000398514609F0F7
:1017E0008BFC002824D132003B000398049909F0B7
:1017F00019FC002200230F000E00059009F084FC64
:10180000002802D080231B06FE184346002B01DD72
:10181000049B9A4600227C4B3100059809F029FC74
:101820005346039A09F076FC002801D1FFF7EEFB3E
:101830004346D8435B46434006D5802243461206C2
:10184000D34201D4FFF7E2FB1F2800D949E6012368
:101850008340069A1A43069217E61A23E06A216B20
:10186000626B05F041FF2B788046002B01D0FFF71B
:10187000D6FA4642049609F075FC80221206934679
:10188000824630008B44039109F06CFC06000F0087
:1018900002000B005046594609F02EFC002824D1C6
:1018A00032003B005046039909F0BCFB00220023A4
:1018B0000F000E00079009F027FC002802D08023BB
:1018C0001B06FE184346002B01DD039B9B460022AE
:1018D0004D4B3100079809F0CCFB52465B4609F0AE
:1018E00019FC002801D1FFF791FB4346D843049B24
:1018F000434000D49CE6802243461206D34201D4E2
:10190000FFF784FB94E61833E06A216B626B05F005
:10191000EBFE2B78002B97D0FFF781FA1923E06AB2
:10192000216B626B05F0E0FE2B788046002B01D026
:10193000FFF775FA4642079609F014FC802212065A
:101940009346824630008B44039109F00BFC06005D
:101950000F0002000B005046594609F0CDFB00284D
:1019600024D132003B005046039909F05BFB002272
:1019700000230F000E00089009F0C6FB002802D0DB
:1019800080231B06FE184346002B01DD039B9B466C
:1019900000221D4B3100089809F06BFB52465B4654
:1019A00009F0B8FB002801D1FFF730FB4346D843CC
:1019B000079B434000D4ACE5802243461206D34245
:1019C00001D4FFF723FBA4E54A4603CB16146A466D
:1019D000128BFEF75DFD2978F6B2002901D0FFF7E2
:1019E0001EFAA36B9868FEF7B9FC2B78002B01D088
:1019F000FFF715FA3200A36BEBE50448012100F074
:101A000061FB012007F054F900004040B8FF0010CE
:101A1000F0B5DE464E4645465746E0B5040085B073
:101A20000A208846029206F07DFC002300220093E3
:101A300041462000FFF7C4F94A4E3378002B34D1D9
:101A400020696169A26905F015FD33780390002BC8
:101A50002BD1236900259946191E54DDD0231B067E
:101A60009B464F46A9426DD962696B0094465B194B
:101A70009B00327863445968002A16D100293AD075
:101A80001A7ADB6891469A46180005F0F9FF53462A
:101A900001229A405B4648465A624B461038434002
:101AA0000AD5002808DB00F0B1FD05B03CBC90462B
:101AB0009946A246AB46F0BD1F2848D80123834073
:101AC0003178029818400029EFD1834218D05B4644
:101AD0009A6120696169A26905F0CCFC3378002B1A
:101AE000E3D1039B834206D01F4B03CB00F060FA87
:101AF0003378002BD9D10135BD4204D02169B1E73B
:101B00005B465A61E5E70A2006F00CFC0023002240
:101B10000093414620000133FFF752F93578002D3C
:101B2000C3D1022006F0FEFB002300224146200024
:101B30000095FFF745F93378002BB6D10A2006F05F
:101B4000F1FBB2E72800013902F044FDADE71F22A6
:101B50000023C117009201930022002301F0D6FA5E
:101B6000A3E7C046441A002024040110F0B5DE4665
:101B70004E4645465746E0B5040085B00A208846E3
:101B800006F0D0FB00230122009341462000FFF71E
:101B900017F95F4E3378002B00D091E0257F002DA0
:101BA0001BD0013DEDB2012D00D8AAE00025002395
:101BB0000022009341462000FFF702F93378002B02
:101BC00000D07DE00A2006F0ADFB280005B03CBC4B
:101BD00090469946A246AB46F0BD20696169A2696C
:101BE00005F048FC33780390002B69D123699A46AD
:101BF000002BDBDD190000230293D0231B060027F6
:101C00009B46A946B94269D97B006169DB199B00F3
:101C10003278CB185868002A52D100284BD01D7A50
:101C200020692B00A26905F051FA3378002B47D1C7
:101C300005F026FF2B0020696169A26905F046FACC
:101C40003378002B3CD1013383405A46936220699C
:101C50002B006169A26905F039FA3378002B2FD186
:101C60005B465B680122C340280010381A4229D025
:101C70002B00434005D5002803DB4D4600F0C6FC91
:101C8000A3E7072832D801238340029A1A43D3B22C
:101C9000029320696169A26905F0ECFB3378002B9F
:101CA0000ED1039B834206D01A4B03CB00F080F980
:101CB0003378002B04D10137BA4515D02169A1E74B
:101CC000002582E7454001D50028D6DA07280DD83F
:101CD00001238340029A9A430292DAE738000139DD
:101CE0004D4602F077FC70E7029D60E70722002373
:101CF000C11700920193002200234D4601F006FA1D
:101D000063E70548012100F0DDF9012006F0D0FF6E
:101D1000441A002024040110E8FF001000B5054B10
:101D200083B0019303F078FB03F05CFB019B9847C1
:101D300003B000BDF106001000B5084B83B0196078
:101D4000074B1860074B1A60FFF7E8FF064B01933B
:101D5000019B9847054B186803B000BD7C19002013
:101D60002819002068190020491F00103C1A002083
:101D7000F0B5C646002300B58EB008AE06930793B3
:101D80000AF03EF809223000664903F0F1FF664C84
:101D900006AF2378002B69D1644D2B0007CE07C313
:101DA0000BAE0C223000624904F066FC2378002B55
:101DB0005CD1604B984607CE07C30421102002F087
:101DC0008FFD1023036002334360013B83600F3BB0
:101DD000C360594B6A4618604346584E02900396BA
:101DE000043303CB03C2434607CD1B68FEF734FE22
:101DF0002378002B3AD10A2009F0DAFE2378002B51
:101E000034D14F4806F08EFA0A2009F0D1FE23782B
:101E1000002B2BD1FA20800006F084FA0A2009F06A
:101E2000C7FE2378002B21D12B2200213000FFF7A1
:101E3000EFFD2378002B19D100213000FFF796FE2B
:101E400023780200002B11D104AD280000F0B6F871
:101E50003B0006CD06C32378002B07D10798069BCD
:101E60000430002B00D1374809F0BEFF380000F0E5
:101E7000C1FB2378002B36D1304C200003F0D6FB79
:101E80002000103003F0D2FB20002C3004F052F878
:101E9000A06B00280ED0021F136807211C008C4382
:101EA000211E30D0190008394B4038D5002936DBC7
:101EB00000F0ACFB204B186800280ED0021F1368FE
:101EC00007211C008C43211E13D0190008394B40F8
:101ED0001DD500291BDB00F099FB164805F0B8FD65
:101EE000124805F0C1FD03F061FA0EB004BC904643
:101EF000F0BD043100F0C2FB0E4805F0A9FD0B480F
:101F000005F0B2FDEFE7043100F0B8FBD2E7094875
:101F1000116005F09DFD054805F0A6FDE3E71160A1
:101F2000C8E7C046AC000110441A00208019002008
:101F30003C0201106C190020781900202C19002097
:101F4000881300000008011010B5FFF711FF10BD45
:101F500010B5002488B00A00010004A80494059478
:101F600002F050FC082204A906A809F01DFD042176
:101F7000202001F0E7FC0A4B079A0360069B094901
:101F8000C360312381600261074A0093074B0694C6
:101F9000079401F08FF806A800F02CFB08B010BDE4
:101FA000EC19002034040110500401104404011005
:101FB00000B583B0FFF7CCFF03B000BDF0B54546D8
:101FC000DE4657464E461C000023E0B587B002931C
:101FD0000393130002AD9046019023430ED12A00D3
:101FE000374B03CB03C20198030006CD06C307B0ED
:101FF0003CBC90469946A246AB46F0BD3C2104A8A5
:1020000003F09AF928000499059A03F07FF96B68A8
:10201000002799460023404621000A2208F0FAFDD5
:102020004B46C246A346060080460C00002B09D052
:1020300080221B68D205134204D0280001F00AFC5C
:102040006B6899464B46DA195346B000861930330F
:1020500076009E1B5B4616717E1C002B01D037005C
:10206000D8E75346092BFAD83100280001F0CEFBFF
:1020700073109846B7D08022D205002491466B6831
:10208000002B11D049461A680A4205D0280001F0F9
:10209000E1FB6B68002B07D049461A680A4203D05F
:1020A000280001F0D7FB6B683A1B19199A180879B8
:1020B000167901340E711071A045E1D193E7C04645
:1020C00064040110F0B5C6460E0000B5002922DDFB
:1020D000124B040000259846114F00E00834216897
:1020E00040466368002900D0181D3B6801229B68A8
:1020F00001350CF037FDB542F0D13B6801220121DA
:102100009B6808480CF02EFD3B6898680CF056FA66
:1021100004BC9046F0BD024FEFE7C0460008011036
:10212000F005002014050110411E0B140B431A1278
:102130001A4313111A439310134308435A10C00F44
:1021400013430130C0187047F0B5DE4657464E467F
:102150004546E0B582468B4687B0022900D102E1B0
:102160000BDC00294FD0012950D1504607B03CBCB0
:1021700090469946A246AB46F0BD032946D10300DE
:102180004343984608F0EEFF02000B0004000D00E8
:1021900008F06FFF02900391404608F0E3FF06004D
:1021A0000F0002000B000298039908F0A5FF002819
:1021B00000D015E1029A039B3000390008F029FF96
:1021C0000022002381468B46059108F09DFF0028E0
:1021D00005D0802212069446059B63449B4600224C
:1021E000A54B4846594608F044FF02000B000298F0
:1021F000039908F097FF002800D0F1E000F006FAFC
:1022000000239A46B1E701239A46AEE701230293E1
:1022100001235A4613424ED05346029843439846F0
:1022200008F0A0FF040050460D0008F09BFF0200DC
:102230000B002000290008F01CFF060040468946DC
:102240000F0008F08FFF04000D0002000B003000AB
:10225000494608F051FF002872D132004B46200059
:10226000290008F0D6FE0022002305000C0005918D
:1022700008F04AFF002805D0802212069446059BEC
:1022800063441C00002200233000390008F03CFFAA
:10229000002802D080273F064F440022764B2800BA
:1022A000210008F0E6FE32003B0008F033FF002872
:1022B00046D100F0ABF95B465B109B4646D4002B41
:1022C00000D1CDE053465B435046984608F04AFFA4
:1022D00002000B0008F0CDFE060040460F0008F09B
:1022E00041FF04000D0002000B003000390008F02F
:1022F00003FF002822D132003B002000290008F013
:1023000088FE00220023050089460C0008F0FCFE30
:10231000002802D0802424064C440022564B28007A
:10232000210008F0A6FE02000B003000390008F082
:10233000F9FE002802D100F069F9D046C24667E7ED
:10234000434602935B465B109B46B8D5D9170023E2
:102350004A4A5846009201930023002200F0D6FE1C
:10236000029B9A4601E703004343984608F0FAFEB1
:1023700002000B0008F07DFE040040460D0008F04E
:10238000F1FE02000B0006000F002000290008F0FB
:10239000B3FEC246002800D0E7E622002B00300042
:1023A000390008F036FE00220023060089460F009F
:1023B00008F0AAFE002802D080273F064F440022E2
:1023C0002D4B3000390008F054FE02000B002000B5
:1023D000290008F0A7FEC246002800D0C5E60DE798
:1023E000524643465343200032009A4629003B00A0
:1023F00008F03FFE0600504688460F0008F0B2FE87
:1024000004000D0002000B003000414608F074FE8D
:10241000002800D0A9E6320043462000290008F039
:10242000F8FD00220023050089460C0008F06CFE30
:1024300000281CD1002200233000390008F064FE7F
:10244000002810D100220C4B2800210008F011FEBA
:1024500032003B0008F05EFE002800D085E6CDE6A5
:10246000029B9A4681E680273F064744EAE780249C
:1024700024064C44DEE7C04600004040FFFFFF7FDB
:10248000F0B5D6464F464646C0B582B06C461F00F2
:10249000002380468A461500012101220020009376
:1024A000636001F09FFA6060002D1EDD002F26D1D1
:1024B00053462268D95D002A11DD0023043002E072
:1024C000013393420BD0C65C8E42F9D10137BD4235
:1024D0000BD0534622686068D95D002AEDDC2000ED
:1024E000013702F04FFABD42F3D14346404606CCD5
:1024F00006C302B01CBC90469946A246F0BD5346A6
:102500001B7820001900994602F03CFA012DECD00E
:10251000012752464B46D25D91469A4203D01100A4
:10252000200002F02FFA0137AF42F2D1DDE7C046BA
:10253000F0B5CE46474680B583B06C461D000023FB
:10254000814688461700042104220020009363601E
:1025500001F048FA6060002F20DD002D27D14146B0
:102560002268AB00C958002A12DD012302E0934221
:102570000ED001339E008659B142F8D10135AF42E9
:102580000CD041462268AB006068C958002AECDCD8
:102590002000013502F0B2FBAF42F2D14B46484673
:1025A00006CC06C303B00CBC90469946F0BD43462A
:1025B0001E682000310002F0A1FB012FEED00125A2
:1025C0004146AA0033008E589E4203D031002000BD
:1025D00002F094FB0135BD42F2D1DFE710B50829C6
:1025E00005DD831E1B88C01A09F0CCF910BD09F067
:1025F000C9F9FBE7406810B5002802D003685B000A
:1026000000D510BD09F0BEF9FBE7C04610B50121A9
:1026100084B0242009F0A4F9114B041D4360114B30
:102620003122A3601223E3600F4B1049236118305D
:102630000F4B00F093FA0F4B1B68002B03D02000C8
:10264000984700280AD00C4B1B68002B03D02000B1
:102650009847002802D0200000F034FA04B010BDE2
:10266000B41900206C040110BC06011050040110C4
:1026700044040110381A0020B019002070B505007C
:102680000C1E11D00A004B1E5A4011D5002B0FDB37
:10269000FFF7BCFF00202D1A082C10DDAB1E188898
:1026A000281A09F06FF902E0043809F06BF970BDDF
:1026B000E01C01D54340EBD463421840EBE728000F
:1026C000F3E7C046036870B51A680400002A05D015
:1026D0009047134B1B78002B14D123689D68002D65
:1026E00011D02A006B1E5A4011D5002B0FDBFFF7CB
:1026F0008DFF0020241A082D10DDA31E1888201A33
:1027000009F040F970BD201F09F03CF9FAE7E81C18
:1027100001D54340EBD46B421840EBE72000F3E7D0
:10272000441A002070B50400406800280DD0021F34
:10273000136807211D008D4328D0190008394B402C
:102740002AD5002928DBFFF761FF2069002802D085
:1027500003685B001DD5A069002802D003685B00F8
:102760001ED5E06900280DD0021F136807211C0048
:102770008C4308D0190008394B400FD500290DDBD8
:10278000FFF744FF70BDFFF79DFFFBE7FFF79AFFE0
:10279000DBE709F0F7F8DEE71160D6E71160F1E753
:1027A00009F0F0F8DDE7C04670B504004068002885
:1027B0000DD0021F136807211D008D4328D019007A
:1027C00008394B402AD5002928DBFFF71FFF206975
:1027D000002802D003685B001DD5A069002802D044
:1027E00003685B001ED5E06900280DD0021F136846
:1027F00007211C008C4308D0190008394B400FD525
:1028000000290DDBFFF702FF70BDFFF75BFFFBE761
:10281000FFF758FFDBE709F0B5F8DEE71160D6E710
:102820001160F1E709F0AEF8DDE7C04670B50400CD
:1028300000680D0000280DD0021F136807211E003C
:102840008E4309D0190008394B4008D5002906DB12
:10285000FFF7DCFE256070BDFFF734FFFAE711607B
:10286000F8E7C04670B50400406800280DD0021F8C
:10287000136807211D008D4328D0190008394B40EB
:102880002AD5002928DBFFF7C1FE2069002802D0E5
:1028900003685B001DD5A069002802D003685B00B7
:1028A0001ED5E06900280DD0021F136807211C0007
:1028B0008C4308D0190008394B400FD500290DDB97
:1028C000FFF7A4FE70BDFFF7FDFEFBE7FFF7FAFE82
:1028D000DBE709F057F8DEE71160D6E71160F1E7B2
:1028E00009F050F8DDE7C04670B5040040680028E4
:1028F0000DD0021F136807211D008D4328D0190039
:1029000008394B402AD5002928DBFFF77FFE2069D4
:10291000002802D003685B001DD5A069002802D002
:1029200003685B001ED5E06900280DD0021F136804
:1029300007211C008C4308D0190008394B400FD5E3
:1029400000290DDBFFF762FE70BDFFF7BBFEFBE762
:10295000FFF7B8FEDBE709F015F8DEE71160D6E710
:102960001160F1E709F00EF8DDE7C04670B504002C
:10297000406800280DD0021F136807211D008D43F9
:1029800028D0190008394B402AD5002928DBFFF749
:102990003DFE2069002802D003685B001DD5A069B8
:1029A000002802D003685B001ED5E06900280DD026
:1029B000021F136807211C008C4308D01900083936
:1029C0004B400FD500290DDBFFF720FE70BDFFF750
:1029D00079FEFBE7FFF776FEDBE708F0D3FFDEE7E3
:1029E0001160D6E71160F1E708F0CCFFDDE7C046E3
:1029F00070B50400406800280DD0021F136807213D
:102A00001D008D4328D0190008394B402AD50029D4
:102A100028DBFFF7FBFD2069002802D003685B007C
:102A20001DD5A069002802D003685B001ED5E069AF
:102A300000280DD0021F136807211C008C4308D00A
:102A4000190008394B400FD500290DDBFFF7DEFDDB
:102A500070BDFFF737FEFBE7FFF734FEDBE708F05A
:102A600091FFDEE71160D6E71160F1E708F08AFF19
:102A7000DDE7C04670B505000C1E09D004390B68AF
:102A80001A000832534019D5002A17DAFFF7BEFDA5
:102A9000286800280DD0021F136807211E008E43EE
:102AA00009D0190008394B400AD5002908DBFFF787
:102AB000ADFD2C6070BDFFF705FEFAE70A60E7E7A1
:102AC0001160F6E7F8B5234E0400356885422FD033
:102AD000002D09D0291F0B681A000832534032D547
:102AE000002A30DAFFF792FDE06900280DD0021FBE
:102AF000136807211F008F4322D0190008394B406B
:102B000026D5002924DBFFF781FD3068E561002828
:102B10000DD0021F136807211D008D430CD0190032
:102B200008394B4011D500290FDBFFF76FFD3460EA
:102B30000122094B1A70F8BDFFF7C4FD3460F7E7B6
:102B4000FFF7C0FDE1E70A60CEE711603460EFE710
:102B50001160DAE7081A0020441A0020F0B5454653
:102B60005746DE464E46E0B591B00F93476803687E
:102B70000DAD040098460D916A60002F1BD05E1CBD
:102B800073409A460AD5002E25DAFFF73FFD11B0B3
:102B90003CBC90469946A246AB46F0BD3B689E427F
:102BA0001CDC43465800404480003F182660043730
:102BB0000ECD0EC7EBE75E1C73409A4600D4C8E00A
:102BC000002E00DBC5E0FFF721FD00230027636036
:102BD000002EDADBE5E73B689E42F9DDC84A134088
:102BE0009946002B00DC88E180235B02994500DBDD
:102BF0008CE14B4648465B009B4608F0B3FA020066
:102C00000B0008F00FFA039058460691029108F065
:102C1000A9FA0490059102000B000398029908F0AC
:102C20006BFA002833D104980599039A029B08F0A7
:102C3000F0F904910A91002200230499089008F009
:102C400063FA002805D080231B069C460A9A62443A
:102C50000492002200230398029908F055FA0028F4
:102C600005D0802212069446069B634402930022FC
:102C7000A44B0898049908F0FCF9039A029B08F009
:102C800049FA002803D1FFF7C1FC00239B465346B5
:102C9000002B01DA002E96DB02965E4565DB3B6871
:102CA0005B0065D502988446430063449B009946C7
:102CB00008F058FA0022944B08F0DBF903904846DC
:102CC0008B46069108F04EFA0490059102000B0025
:102CD0000398594608F010FA00282FD10498059956
:102CE0005B46039A08F095F904910A9100220023AB
:102CF0000499089008F008FA002805D080231B06E4
:102D00009C460A9A62440492002200235946039882
:102D100008F0FAF9002805D0802212069446069B96
:102D200063449B460022774B0898049908F0A1F968
:102D30005B46039A08F0EEF9002806D04B46181DB2
:102D400000D435E1434000D432E1FFF75FFC0027B7
:102D500005E004220C21300000F044FE0700534639
:102D60006760002B00DA33E71BE75B46029396E7C8
:102D70004B465A004A44930048469B4608F0F2F9F5
:102D80000022614B08F075F9039058468946069178
:102D900008F0E8F90490059102000B0003984946F9
:102DA00008F0AAF900282FD1049805994B46039AF8
:102DB00008F02FF904910A91002200230499089049
:102DC00008F0A2F9002805D080231B069C460A9A29
:102DD00062440492002200234946039808F094F9C3
:102DE000002805D0802212069446069B634499462B
:102DF0000022444B0898049908F03BF94B46039A8B
:102E000008F088F90028A0D05B460433039303D56B
:102E10005B46039A534098D4029884464200624429
:102E20009300994608F09EF90022374B08F021F9EB
:102E3000069048460A91049108F094F90890099187
:102E400002000B000698049908F056F9002830D1CA
:102E500008980999069A049B08F0DBF808910C91F0
:102E60000022002308990B9008F04EF9002805D0A5
:102E700080231B069C460C9A624408920022002381
:102E80000698049908F040F9002805D0802212061F
:102E900094460A9B6344049300221A4B0B980899AA
:102EA00008F0E7F8069A049B08F034F9002800D1EE
:102EB0004BE74B460433049304D54B46049A5340E6
:102EC00000D542E7039B002B00DADEE0049B002BD9
:102ED00000DADAE0190038000CF026F9039B0499B7
:102EE00007008B4206DA59464A46C018521A00219A
:102EF00008F054FD029B3B6031E704239B46C6E685
:102F0000FFFFFFBF00004040000028404B465B0031
:102F10004B4448469B4608F025F90022614B08F0D7
:102F2000A8F8039058460691029108F01BF9049006
:102F3000059102000B000398029908F0DDF80028C3
:102F400030D104980599039A029B08F062F8049125
:102F50000A91002200230499089008F0D5F800286F
:102F600005D080231B069C460A9A624404920022E4
:102F700000230398029908F0C7F8002805D08022A2
:102F800012069446069B634402930022464B08981F
:102F9000049908F06EF8039A029B08F0BBF8002829
:102FA00000D170E65B46DB0F5B445B109B466EE630
:102FB00000286BDB012108F0D3FC43465B0043444F
:102FC0009B0083464046994608F0CCF80022374BD8
:102FD00008F04FF8049048460891039108F0C2F8B1
:102FE0000690079102000B000498039908F084F8FA
:102FF000002830D106980799049A039B08F009F835
:1030000006910B910022002306990A9008F07CF8A3
:10301000002805D080231B069C460B9A624406922A
:10302000002200230498039908F06EF8002805D0C8
:10303000802212069446089B6344039300221A4B95
:103040000A98069908F015F8049A039B08F062F8AC
:10305000002800D179E64B46002B0ADB5B464A4646
:10306000181D391D08F0A0FC5B46029A5F461A60E5
:1030700075E6D91700230E4A4846009201930022B4
:10308000002300F043F8002769E618000023084AEF
:10309000C117009201930022002300F037F80027A7
:1030A0005DE6C046000008400000404000002840A7
:1030B000FFFFFF7F10B5040008001100A26884B074
:1030C000002A00D1A060002906D0002B04D02000E7
:1030D000069A1430FFF742FD0A4B1B68002B03D001
:1030E0002000984700280AD0074B1B68002B03D00C
:1030F00020009847002802D02000FFF7E3FC04B02E
:1031000010BDC046381A0020B0190020F0B5DE46C8
:1031100057464E464546E0B581468DB00F00252006
:10312000012190461E00202508F01AFC00244A4682
:103130003B0005600A9009A8099400F0E9FF0A9B8A
:10314000012125209946099F08F00AFC42463300D8
:1031500005600A9009A8099400F0DAFF099E0A9B0D
:10316000012125209A46039608F0FAFB169A179B30
:1031700005600A9009A8099400F0CAFF099BB919D3
:103180009C460A9A61441F3107A89346049300F0B5
:10319000B5F9079B904998464246089B141D1D1996
:1031A0001522280046460431029308F0FDFB4246F2
:1031B00014360596724007D5002E00DB06E1464620
:1031C000FFF724FA059602E0029B14341D19002F24
:1031D00009DD3B007A1C534000D484E0002A00DB68
:1031E00083E0FFF713FA7D4908222800043108F034
:1031F000DBFB3300F71DB8467B4007D5002F05DA0F
:10320000FFF704FA059B3700984603E03400029B61
:103210000B341D19039B002B08DD5A1C534000D4AE
:1032200075E0002A00DB74E0FFF7F0F96C49280034
:103230000522043108F0B8FB43462500634005D55C
:10324000002C03DAFFF7E2F93C004546049B002B13
:1032500008DD5A1C534000D46FE0002A00DB6EE00A
:10326000FFF7D4F90121242008F07AFB31225D4BCD
:10327000041D43605C4B5D49A360029BE5602361D4
:103280005B4B18300B9309910A92FFF767FC594B7F
:103290001B68002B03D02000984700280AD0564B0B
:1032A0001B68002B03D020009847002802D0200084
:1032B000FFF708FC5B46002B02D01B685B005AD569
:1032C0005346002B02D01B685B004CD54B46002BAD
:1032D00002D01B685B004AD50DB03CBC90469946B5
:1032E000A246AB46F0BD002A56DB4B462800191D0E
:1032F00008F05AFB3200BB195A4002D55F4000D596
:103300006FE7029A1C1D1E00151905936BE7002A32
:1033100035DB53462800191D08F046FB039BDA19DC
:103320004346534003D5039B534000D57CE7029BA3
:10333000141D170090461D1978E7002A39DB029BFF
:10334000201D9C465B466044191D08F02DFB049A25
:103350009446644423006B4003D51300634000D5BA
:103360007EE725007EE7504608F00CFBAEE74846B6
:1033700008F008FBB0E7584608F004FBA0E700237C
:10338000802001211D4A000600920193494200223B
:103390000023FFF7BBFE49E7002380200121174AE5
:1033A000000600920193494200220023FFF7AEFE7F
:1033B00019E7002380200121104A000600920193A2
:1033C000494200220023FFF7A1FE4BE74446029B3F
:1033D00018341D19FBE6C04688060110A40601102A
:1033E000B0060110141A00207C04011050040110D2
:1033F00044040110381A0020B0190020FFFFFF7F9D
:1034000010B543180C0082B0584007D50A005A4046
:1034100004D5FFF7FBF8002002B010BD19005A1EBA
:10342000514001D5002AF4DA581C424002D5002848
:10343000EFDB01E0002811DB08F080FA621E024099
:10344000A31A5C4001D55A40E3D519009A1E514099
:1034500001D5002ADDDA13521818DDE70023054AEA
:10346000C1170092019300220023FFF74FFE0020B6
:10347000D2E7C046FFFFFF7FF0B50E000700140043
:10348000190083B0082B12DD1000FFF7B9FF3900D7
:103490003200050008F088FAA11B4C4013D5330018
:1034A0004B4010D4FFF7B2F8280003B0F0BD110074
:1034B0000BF03AFE0500A642F6DA0021A21B8019A5
:1034C00008F06CFAF0E700290ADB0A00A8190021CD
:1034D00008F064FABB1E1888381A08F053FAE3E7BC
:1034E0000023054ACC170092019308000022002314
:1034F0002100FFF70BFED7E7FFFFFF7F70B584B019
:1035000002AD0E00040008220021280008F046FA4F
:10351000002E13DD3200731C5A4009D5002B07DA48
:10352000FFF774F82300200006CD06C304B070BD79
:10353000701D434006D50028F2DB05E0002302930E
:103540006B60EFE7002807DB012108F009FA002390
:10355000066002936860E5E70023044AC117009201
:10356000019300220023FFF7D1FDDBE7FFFFFF7F80
:10357000F0B54E464546DE465746E0B506680400BF
:103580003300751885B06B400AD5694008D5FFF740
:103590003DF805B03CBC90469946A246AB46F0BD0E
:1035A0006768002F02D03A6853001ED52A006B1CB2
:1035B0005A4001D5002BEADB681D434000D49BE054
:1035C0000028E4DB012108F0CBF960600560002EE3
:1035D000DFDDAE4200DD2E00002E00DAF5E0320025
:1035E000391D043008F0E0F9D3E7844B1A409046C7
:1035F000AA42CEDA131E00DCDBE080235B029A4293
:1036000000DB86E053001000994607F0ABFD020096
:103610000B0007F007FD834648468A46029107F0F3
:10362000A1FD06000F0002000B005846514607F0AE
:1036300063FD002832D15A4653463000390007F066
:10364000E8FC0022002307000E00039107F05CFD58
:10365000002805D0802212069446039B63441E0076
:10366000002200235846514607F04EFD002805D0A1
:10367000802212069446029B63449A460022604BC5
:103680003800310007F0F5FC5A46534607F042FD7A
:10369000002803D1FEF7BAFF0023994643460133C1
:1036A0004246561D734000D48CE0002E00DA6EE7CF
:1036B0004F46AF4200DA2F003A007B1C5A4002D539
:1036C000002B00DA63E77D1D6B4000D488E0002DFD
:1036D00000DA5CE7290060680BF026FD8146AE4207
:1036E00006DA434630000021FA1A484408F056F939
:1036F0004B4663601F604CE7002800DB62E7002355
:10370000404AC1170092019300220023FFF7FEFCFC
:103710003FE7530043441000994607F023FD002281
:10372000394B07F0A6FC834648468A46029107F0CB
:1037300019FD06000F0002000B005846514607F025
:10374000DBFC00282FD15A4653463000390007F0E1
:1037500060FC0022002307000E00039107F0D4FC58
:10376000002805D0802212069446039B63441E0065
:10377000002200235846514607F0C6FC002805D019
:10378000802212069446029B63449A4600221C4BF8
:103790003800310007F06DFC5A46534607F0BAFC7A
:1037A000002800D176E74B46DB0F4B445B1099466F
:1037B00074E701335A4002D5002B00DAE7E6042211
:1037C00091466DE7002E00DB72E700230D4A3000C2
:1037D00000920193F11700220023FFF797FCD8E62F
:1037E000002D00DB76E70023064A280000920193B3
:1037F000E91700220023FFF789FCCAE6FFFFFFBF9D
:1038000000004040FFFFFF7F0000084070B505004A
:103810000C1E0BD002688A420ADB4368002B07D0DB
:103820001968490004D400221B191A712C6070BD5C
:103830002300A11A4B4004D54A4002D4FEF7E6FE0D
:10384000F5E72800FFF794FE00226B681B191A7138
:10385000ECE7C046F0B5056804002B006E1C83B091
:10386000734005D5002E03DAFEF7D0FE03B0F0BD9D
:103870003300681D43400FD50028F5DB0121676840
:1038800008F06EF860600560002E11DB3200391D13
:10389000043008F089F8E9E70028EFDA00230A4A43
:1038A000C1170092019300220023FFF72FFCDDE7F0
:1038B0000023054A300000920193F11700220023F3
:1038C000FFF724FCD2E7C046FFFFFF7F10B5431887
:1038D0000C0082B0584007D50A005A4004D5FEF7C4
:1038E00095FE002002B010BD19005A1E514001D5AE
:1038F000002AF4DA581C424002D50028EFDB01E030
:10390000002812DB012108F02BF8621E0240A31AE6
:103910005C4001D55A40E2D519009A1E514001D5AC
:10392000002ADCDA13521818DCE70023044AC11716
:103930000092019300220023FFF7E8FB0020D1E76B
:10394000FFFFFF7F70B504000E0082B0002918D081
:103950000B004A1E53401FD5002A1DDB0025FEF731
:1039600055FE60190023444010D400282DDB002EA2
:103970001FDB082E18DD3100FFF7A8FF401902B049
:1039800070BD0425042360194440EED54340ECD5B6
:10399000FEF73CFE0020F2E7F31C01D55A40DDD4CF
:1039A000724213401D00EEE7012107F0D9FF4019D4
:1039B000E5E700230A4A300000920193F117002244
:1039C0000023FFF7A3FB0020D9E70023044AC11717
:1039D0000092019300220023FFF798FB0020CEE71E
:1039E000FFFFFF7FF0B54E465746DE464546E0B541
:1039F00089460700160085B0002800DC8BE0042310
:103A00009B46002A0AD0531E5A4000D475E0002B72
:103A100000DA72E0FEF7FAFD00239B464B467B433B
:103A20003800984607F09EFB040048460D0007F05A
:103A300099FB02000B002000290007F01AFB8246C8
:103A400040468946029107F08DFB04000D000200FC
:103A50000B005046494607F04FFB002830D1524634
:103A60004B462000290007F0D4FA05000C00039112
:103A7000002200232800210007F046FB002805D083
:103A8000802212069446039B63441C0000220023FC
:103A90005046494607F038FB002805D08022120620
:103AA0009446029B634499460022274B280021003C
:103AB00007F0DFFA52464B4607F02CFB002807D0F0
:103AC00058465B46404443400CD54346434009D5E5
:103AD000FEF79CFD002005B03CBC90469946A246EE
:103AE000AB46F0BD002824DB002E16DB082E0DDDD2
:103AF0003100FFF7EBFE0760EDE7F21C02D5534003
:103B000000D587E773421A40934687E7012107F003
:103B100027FF0760DFE70020DDE700230B4A3000C6
:103B200000920193F11700220023FFF7EFFA002023
:103B3000D1E70023054AC117009201930022002318
:103B4000FFF7E4FA0020C6E700004040FFFFFF7FD8
:103B500010B50C0082B0082928DD4318584007D55D
:103B60000A005A4004D5FEF751FD002002B010BDF6
:103B700019005A1E514001D5002AF4DA581C42405F
:103B800018D50028EFDB012107F0EAFE621E024093
:103B9000A31A5C4001D55A40E5D519009A1E514040
:103BA00001D5002ADFDA13521818DFE7012107F0E8
:103BB000D7FEDBE70028E6DA0023054AC1170092AA
:103BC000019300220023FFF7A1FA0020CEE7C046B0
:103BD000FFFFFF7FF0B54E46DE4645465746994605
:103BE0000423E0B58BB09B46149B06000D00140027
:103BF000002B09D01A00013B5A4066D5002B64DB2C
:103C0000FEF704FD00239B462F00002C0BDD002D4A
:103C100011D13019464000D427E1444000D424E1BA
:103C2000FEF7F4FC002738000BB03CBC90469946E8
:103C3000A246AB46F0BDC14F2B681F40002F4EDDA2
:103C400080235B029F4200DB15E17B003800984631
:103C500007F088FA02000B0007F0E4F902904046F2
:103C60008A46079107F07EFA0490059102000B0046
:103C70000298514607F040FA002832D1049805997D
:103C80005346029A07F0C5F90491099100220023D6
:103C90000499089007F038FA002800D047E1002284
:103CA00000235146029807F02FFA002800D037E190
:103CB0000022A34B0898049907F0DBF95346029AB7
:103CC00007F028FA00280CD11FE1149AD11C01D565
:103CD0004B4095D4149B5B4219408B4694E70423D8
:103CE00098463200A3195A4001D55C4098D49A46B0
:103CF000434500DAC2462B685B0000D424E15346FA
:103D00004C4648465C4307F02DFA0290039150461A
:103D100007F028FA029A039B07F0ABF980462000CF
:103D20000F00079107F01EFA0490059102000B00A6
:103D30004046390007F0E0F9002830D10498059991
:103D400042463B0007F065F90491099100220023E7
:103D50000499089007F0D8F9002805D080231B06A5
:103D60009C46099A6244049200220023404639008E
:103D700007F0CAF9002805D0802212069446079B56
:103D800063441F0000226E4B0898049907F071F9F4
:103D900042463B0007F0BEF9002800D140E75B46F1
:103DA000E018434002D5444000D539E7002800DA46
:103DB0009FE1149B002B00DA8EE11900FFF7C8FE8B
:103DC0004C460700300007F0CDF9029A039B07F03C
:103DD00050F974438046200089460E0007F0C2F96E
:103DE0000290039102000B004046494607F084F917
:103DF00000282DD10298039942464B4607F009F955
:103E000002910791002200230299049007F07CF9A7
:103E1000002805D080231B069C46079A6244029224
:103E2000002200234046310007F06EF9002802D03E
:103E3000802636064E440022414B0498029907F032
:103E400018F94246330007F065F9002800D1E7E68B
:103E5000002C00DA34E15B462900F81822005944AE
:103E600007F0A2FD53463B60DDE64946149AFFF792
:103E7000B9FD0700D7E67B003800984607F072F9D5
:103E80000022304B07F0F5F8B844029040468A46CD
:103E9000079107F067F90490059102000B00029862
:103EA000514607F029F9002834D104980599534662
:103EB000029A07F0AEF804910991002200230499B8
:103EC000089007F021F9002805D080231B069C46A6
:103ED000099A62440492002200235146029807F096
:103EE00013F9002805D0802212069446079B6344EC
:103EF0009A460022124B0898049907F0BAF85346E4
:103F0000029A07F007F9002804D1FEF77FFB00238F
:103F10009846E6E64346DB0F43445B109846E0E6EE
:103F2000802212069446079B63449A46C0E680238B
:103F30001B069C46099A62440492B0E6FFFFFFBF4D
:103F400000004040000008404B467B4348469846EE
:103F500007F008F904900591380007F003F9049A76
:103F6000059B07F086F8029040460C00079107F089
:103F7000F9F806000F0002000B000298210007F07C
:103F8000BBF800282FD1230030003900029A07F037
:103F900040F80022002306000F00089107F0B4F853
:103FA000002805D0802212069446089B63441F0017
:103FB000002200232100029807F0A6F8002805D06F
:103FC000802212069446079B63441C0000224E4B3D
:103FD0003000390007F04DF82300029A07F09AF8F4
:103FE000002800D11CE644465B465C44634003D590
:103FF0004346634000D513E652464B465343504672
:10400000994607F0AFF8049A059B07F032F8029042
:1040100048468846049107F0A5F806000F00020004
:104020000B000298414607F067F800282FD143465D
:1040300030003900029A06F0ECFF0022002306004F
:104040000F00079107F060F8002805D080221206C3
:104050009446079B63441F000022002341460298B8
:1040600007F052F8002805D0802212069446049BDF
:10407000634498460022244B3000390006F0F9FFD3
:104080004346029A07F046F8002800D1C8E5584692
:1040900059464844414003D54B46434000D5BFE50F
:1040A000002C0DDB002824DB149B002B14DB02000A
:1040B00021002800FFF7E0F9534607000360B2E54E
:1040C0000023124A200000920193E11700220023EE
:1040D000FFF71CF80027A6E5149B0C4AD91700230C
:1040E00014980092019300220023FFF70FF8002795
:1040F00099E50023054AC11700920193002200238D
:10410000FFF704F800278EE500004040FFFFFF7F27
:10411000F0B55746DE464E464546E0B587B00493B7
:10412000036882461C0017000393203420330BD011
:10413000002C00DB30E1039B002B00DA2CE1FEF7C2
:1041400065FA53465E6802E0466853461C600023E9
:1041500004999B460FE003995A468C46B2183037B3
:104160006244FB1A13715B462A000133224335D0A7
:10417000270029009B460A220023380006F02EFD66
:1041800004000D00002E16D080223368D2051342A1
:1041900011D053461B689846012343449946434631
:1041A0004A46534000D48EE0002A00DB8BE0FEF745
:1041B0002DFA53465E68A3001B195B00FA1A002A09
:1041C000C9DC03995A468C46DF1BB218624430376B
:1041D0005B4617712A0001332243C9D19846049BDC
:1041E000002B00DAE2E0039B43449946002B0BD0FE
:1041F00053461B68994500DDC5E03268520000D582
:10420000C1E000234E44337153464A461A60434688
:104210005E1000D197E05346039C5D68A446631E80
:10422000039353466644B2461E0027E05B46002BCC
:1042300030DAFEF7EBF973689846002B00D1F3E013
:104240001F688023DB051F40002F00D1EEE0376898
:104250007B1C9B467B4060D55B46002B5DDAFEF7FE
:10426000D5F97568039B2A194B441B1BEB18117970
:104270001879013410711971A24564D0002DF1D064
:1042800080222B68D2051342ECD037687B1C9B46FA
:104290007B40CBD45B46781D434068D50028C8DB03
:1042A000012107F05DFB5B46804670600760002BD4
:1042B00000DA99E05A460430291D07F075FB802387
:1042C000DB051F40C0E74346581D4B46434016D50B
:1042D000002800DA6BE7012107F042FB52464B460B
:1042E0005060424605900260002B00DA6FE0059BAB
:1042F000311D4A46181D07F057FB059E5BE7002855
:10430000E9DA00234A4AC1170092019300230022F0
:10431000FEF7FCFE53465E684DE75B46781D434062
:1043200018D500289BDB012107F01AFB5B4605002E
:1043300070600760002B62DB41465A46043104304E
:1043400007F032FB8EE707B03CBC90469946A24688
:10435000AB46F0BD0028E6DA0023354AC1170092CB
:10436000019300220023FEF7D1FE75687AE700284A
:1043700096DA00232E4AC1170092019300220023EF
:10438000FEF7C4FE57E74A46D11A4A4043D54B4090
:1043900041D4FEF73BF93AE720215046FFF7E8F811
:1043A000534600225E6833191A71CEE633685B000B
:1043B00004D55046FFF74EFA53465E682D22039B04
:1043C000F31843441A7102235B4498460BE7D9174C
:1043D0000023174A48460092019300230022FEF76B
:1043E00095FE53465E68E6E6D9170023104A584604
:1043F0000092019300220023FEF788FE1BE7D917E5
:1044000000230B4A58460092019300220023FEF736
:104410007DFE756826E75046FFF7AAF853465E68AA
:1044200000234E443371EFE600251BE7454619E7AC
:10443000FFFFFF7FF0B5C64600B584B002AD1600A1
:1044400004000F0008220021280007F0A7FA002E20
:1044500015DD3200731C5A400BD5002B09DAFEF72C
:10446000D5F82300200006CD06C304B004BC904656
:10447000F0BD701D434006D50028F0DB05E00023A9
:1044800002936B60EDE700280CDB012107F068FA6E
:1044900080463200390040C007F086FA4346029653
:1044A0006B60DEE70023044AC117009201930022EB
:1044B0000023FEF72BFED4E7FFFFFF7F70B584B02B
:1044C0006D460E00040008220021280007F066FA5D
:1044D000002E12D030000BF023F93100020002A8A8
:1044E000FFF7A8FF0822280002A907F05DFA2300C1
:1044F000200006CD06C304B070BD00960196F6E715
:1045000030B51C4D04002B6883B0002B13D0010084
:104510006846FFF7D3FF019C2B682100009898475D
:10452000002C02D023685B0016D5134B1A78002AA2
:1045300018D103B030BD114B1B68DD6800280FD0C7
:104540000BF0EEF802002B00012120000AF00AFB1C
:1045500028000AF033F8ECE7200007F013FAE4E74C
:104560000022F0E7002206481A700368D969FEF7B6
:1045700081FADEE7AC190020441A0020F005002083
:10458000081A0020030010B5022810D00B2808D00C
:10459000062810D008280CD00848042B02D108485F
:1045A00000E00848FFF7ACFF012004F081FB06485B
:1045B000F8E70648F6E70648F4E7C046A804011005
:1045C00034050110D8040110B804011018050110B9
:1045D00088040110F0B54546DE4657464E46E0B524
:1045E00080460D008BB0002930DA2B257B4E07ACBE
:1045F0000121242007F0B4F93122794B071D4360D3
:10460000784B7949BB60794BFD603E611830A360FF
:1046100007916260FEF7A2FA754B1B68002B03D06E
:104620003800984700280AD0724B1B68002B03D033
:1046300038009847002802D03800FEF743FA0BB044
:104640003CBC90469946A246AB46F0BD01211520E0
:1046500007F086F910274346002607AC424607605C
:104660000890DB1720000796FFF752FD079B0121FA
:104670009846089B15209A4607F072F92A000760B1
:10468000EB17089020000796FFF742FD089B079F55
:104690009B464346F918133105A8FEF72FFF059BEB
:1046A000069E1D1D544975190722043128000393E5
:1046B00007F07AF9039B9A1D9146494602921A0027
:1046C0004B4040D5002900DB84E0FDF79FFF039BB2
:1046D000994602934346002B06DD5A1C534047D5AA
:1046E000002A47DAFDF792FF444928000E220431E0
:1046F00007F05AF90D234B441D009846029B6B406E
:1047000005D5002D03DAC846FDF780FF029D002F76
:1047100007DD7A1C13007B4018D5002A18DAFDF754
:1047200075FF5B46002B02D01B685B0034D55346F7
:10473000002B00D15CE71B685B0000D558E75046B2
:1047400007F020F954E70A32B518C3E7002A27DB3F
:104750004346181D5B463018191D07F025F94346DE
:10476000FB181A006A4001D55F40D8D41D00D8E775
:10477000002A22DB53462800191D07F015F942468E
:10478000029B4A44534002D543465340AAD4151DC8
:10479000914675190292A7E7584607F0F3F8C6E765
:1047A000002380200121164A00060092019349420D
:1047B00000220023FEF7AAFCB3E70023802001219A
:1047C0000F4A000600920193494200220023FEF79F
:1047D0009DFC89E7039D0A3575197BE7D406011016
:1047E00090190020500501105004011044040110DC
:1047F000381A0020B019002004070110100701101A
:10480000FFFFFF7FF0B5C64600B50600406884B0E4
:1048100014000291039290421CD00D00002A1DD07A
:1048200080231268DB051A4218D1002822D00268C2
:104830001A421FD1284B1A40914219DC0B004F1C21
:104840007B40984643463560002B26DA002F26DA57
:10485000FDF7DCFE04B004BC9046F0BD002804D097
:1048600003685B0001D407F08DF835607460F1E7F0
:1048700007F088F82B006F1C7B40984601D5002F6D
:10488000E6DB3B00681D43401AD50028E0DB012130
:1048900007F066F870600560D4E7002F05DB3A008A
:1048A000211D043007F080F8D4E700230B4A3800BC
:1048B00000920193F91700220023FEF727FCC9E7B5
:1048C0000028E4DA0023054AC11700920193002270
:1048D0000023FEF71BFCBDE7FFFFFFBFFFFFFF7FCD
:1048E00070B504000E0082B000291BD00B004A1ED8
:1048F000534022D5002A20DB0025FDF787FE6019F2
:104900000023444013D400282EDB002E20DB082E89
:104910001BDD3100FEF774FD00224019031F1A60F1
:1049200002B070BD0425042360194440EBD5434018
:10493000E9D5FDF76BFE0020F2E7F31C01D55A40E4
:10494000DAD4724213401D00EEE706F0F7FFE3E70A
:1049500000230B4A300000920193F117002200233C
:10496000FEF7D4FB0020DBE70023054AC1170092C5
:10497000019300220023FEF7C9FB0020D0E7C046C8
:10498000FFFFFF7FF0B54E4645465746DE46E0B591
:10499000076845683B007E1C7340040089469846C2
:1049A0008BB0002D14D0002B0ADA002E1CDAFDF794
:1049B0002DFE0BB03CBC90469946A246AB46F0BDDE
:1049C0002A68964213DC4B46ED1926602B71F0E7FE
:1049D000002B7ADA002E78DAFDF718FE0023002586
:1049E0006360002EE3DBEEE72A689642F9DD994B1F
:1049F0001A409346002A00DCA1E080235B029A4221
:104A000000DB9FE0530010009A4606F0ABFB02006B
:104A10000B0006F007FB069050460791039106F045
:104A2000A1FB0490059102000B000698039906F083
:104A300063FB002833D104980599069A039B06F07E
:104A4000E8FA04910991002200230499089006F0E5
:104A50005BFB002805D080231B069C46099A624414
:104A60000492002200230698039906F04DFB0028CB
:104A700005D0802212069446079B634403930022CC
:104A8000754B0898049906F0F4FA069A039B06F011
:104A900041FB002803D1FDF7B9FD00239A464346A8
:104AA000002B01DA002E97DB0396564519DB2B68A5
:104AB0005B0019D5039B181D00D494E0434000D43B
:104AC00091E0FDF7A3FD002505E001220121300062
:104AD000FEF788FF050043466560002B00DA80E79B
:104AE00071E753460393E2E75B4604339A4603D5E6
:104AF0005B4652465340E4D4039B1A0004320692AC
:104B000002D5069A5340DCD45346002B00DA94E0D9
:104B1000069B002B00DA84E0190028000AF004FB51
:104B2000069B05009A4507DA5A46039B00219A1A0C
:104B30005346C01806F032FF039B2B60CBE70423DB
:104B40009A46ACE753005B4410009A4606F00AFB15
:104B50000022424B06F08DFA0690504607910391D1
:104B600006F000FB0490059102000B0006980399E3
:104B700006F0C2FA002830D104980599069A039BE2
:104B800006F047FA04910991002200230499089045
:104B900006F0BAFA002805D080231B069C46099A25
:104BA00062440492002200230698039906F0ACFAAE
:104BB000002805D0802212069446079B6344039385
:104BC0000022254B0898049906F053FA069A039B95
:104BD00006F0A0FA002800D15DE75346DB0F5344EE
:104BE0005B109A465BE700281CDB012106F0B8FE4B
:104BF0008246002F09DB3A00291D043006F0D4FE5E
:104C00005346039A55461A6065E70023144A380054
:104C100000920193F91700220023FEF777FA00258E
:104C200059E7180000230E4AC11700920193002291
:104C30000023FEF76BFA00254DE7D9170023084A39
:104C400050460092019300220023FEF75FFA0025F0
:104C500041E7C046FFFFFFBF0000404000000840A2
:104C6000FFFFFF7F70B5050000290DD000780129F6
:104C700009DD0123EA5C141C824200D2041C0133CA
:104C8000E0B28B42F6D170BD00200139FFF7A2FCE3
:104C90000020F8E770B584B0029003910092019370
:104CA0008B4210D0009C02000020944201D004B03E
:104CB00070BD1000541E604007D5002C05DBFDF7C9
:104CC000A5FC0020F3E70120F1E7002004310433C4
:104CD000A042F8DC90420AD00E5C1D5CAE420BD1C3
:104CE000451C684001D5002DE9DB2800F0E7411E96
:104CF000FFF770FC0020DAE70020D8E7F0B5454662
:104D0000DE4657464E46E0B5076846683B007D1CC8
:104D10006B4004008B4698468FB0002E15D0002BB8
:104D20000ADA002D1FDAFDF771FC0FB03CBC90468B
:104D30009946A246AB46F0BD33689D4216DC5B4601
:104D4000BF00F61925607360EFE7002B00DBC5E0BC
:104D5000002D00DBC2E0FDF759FC00230026636054
:104D6000002DE0DBEBE733689D42F9DDC44A1340D8
:104D70009946002B00DC80E180235B02994500DB33
:104D800084E14B4648465B009A4606F0EBF9020088
:104D90000B0006F047F90A9050460691039106F081
:104DA000E1F90490059102000B000A98039906F0BE
:104DB000A3F9002833D1049805990A9A039B06F0B9
:104DC00028F904910B91002200230499089006F021
:104DD0009BF9002805D080231B069C460B9A624451
:104DE0000492002200230A98039906F08DF9002806
:104DF00005D0802212069446069B6344039300224A
:104E0000A04B0898049906F034F90A9A039B06F01F
:104E100081F9002803D1FDF7F9FB00239A464346A8
:104E2000002B01DA002D96DB0395554562DB3368D4
:104E30005B0062D503988300994606F093F900223F
:104E4000914B06F016F90A9048468A46069106F0FC
:104E500089F90490059102000B000A98514606F06A
:104E60004BF900282FD10498059953460A9A06F069
:104E7000D0F804910B91002200230499089006F0C9
:104E800043F9002805D080231B069C460B9A6244F8
:104E900004920022002351460A9806F035F90028B2
:104EA00005D0802212069446069B63449A4600224F
:104EB000744B0898049906F0DCF853460A9A06F0F9
:104EC00029F9002806D04B46181D00D430E1434094
:104ED00000D42DE1FDF79AFB002605E00422042111
:104EE0002800FEF77FFD060043466660002B00DACF
:104EF00036E724E75346039399E74B4648469B0021
:104F00009A4606F02FF900225F4B06F0B2F80A909D
:104F100050468946069106F025F904900591020055
:104F20000B000A98494606F0E7F800282FD10498AC
:104F300005994B460A9A06F06CF804910B910022F1
:104F400000230499089006F0DFF8002805D080239C
:104F50001B069C460B9A6244049200220023494699
:104F60000A9806F0D1F8002805D08022120694464F
:104F7000069B634499460022424B0898049906F028
:104F800078F84B460A9A06F0C5F80028A2D0534696
:104F900004330A9303D553460A9A53409AD403988C
:104FA0008300994606F0DEF80022374B06F061F8E0
:104FB000069048460B91049106F0D4F808900991A8
:104FC00002000B000698049906F096F8002830D1EC
:104FD00008980999069A049B06F01BF808910D9110
:104FE0000022002308990C9006F08EF8002805D0C6
:104FF00080231B069C460D9A6244089200220023DF
:105000000698049906F080F8002805D08022120640
:1050100094460B9B6344049300221A4B0C98089906
:1050200006F027F8069A049B06F074F8002800D1D1
:1050300050E74B460433049304D54B46049A53403F
:1050400000D547E70A9B002B00DADBE0049B002B2E
:1050500000DAD7E0190030000AF066F80A9B0499DC
:1050600006008B4206DA51464A46C018521A002101
:1050700006F094FC039B336036E704239A46CEE6A1
:10508000FFFFFFBF00004040000010404B465B00A8
:105090004B4448469A4606F065F800225F4B05F0FF
:1050A000E8FF0A9050460691039106F05BF80490E1
:1050B000059102000B000A98039906F01DF80028DC
:1050C00030D1049805990A9A039B05F0A2FF049138
:1050D0000B91002200230499089006F015F800288F
:1050E00005D080231B069C460B9A62440492002242
:1050F00000230A98039906F007F8002805D08022BB
:1051000012069446069B634403930022444B08987E
:10511000049905F0AEFF0A9A039B05F0FBFF0028F7
:1051200000D178E65346DB0F53445B109A4676E68F
:10513000002868DB012106F013FCBB008246380022
:10514000994606F00FF80022364B05F092FF0490C6
:10515000484608910A9106F005F80690079102006A
:105160000B0004980A9905F0C7FF002830D1069873
:105170000799049A0A9B05F04CFF06910C910022B6
:10518000002306990B9005F0BFFF002805D080236F
:105190001B069C460C9A6244069200220023049847
:1051A0000A9905F0B1FF002805D080221206944626
:1051B000089B63440A930022194B0B98069905F04B
:1051C00058FF049A0A9B05F0A5FF002800D181E64C
:1051D0004B46002B0ADB53464A46181D311D06F08C
:1051E000E3FB5346039A56461A607DE6D91700231F
:1051F0000D4A48460092019300220023FDF786FFE6
:10520000002671E618000023074AC1170092019397
:1052100000220023FDF77AFF002665E60000084023
:105220000000404000001040FFFFFF7F70B584B0D9
:1052300002900391009201938B4210D0009C0200D7
:105240000020944201D004B070BD1000541E604094
:1052500007D5002C05DBFDF7D9F90020F3E7012085
:10526000F1E704250020A042F9DC90420CD04E5911
:10527000B4465E59B4450CD1461C704001D5002E91
:10528000E9DB30000435EEE7411EFFF7A3F900200B
:10529000D9E70020D7E7C046406810B5002802D003
:1052A00003685B0000D510BD06F06CFBFBE7C04651
:1052B000406810B5002802D003685B0000D510BD1F
:1052C00006F060FBFBE7C04650B5060000680C0026
:1052D00083B0884217DC0EDA7168002902D00B68AF
:1052E000A34210DA2300221A534006D5030053408C
:1052F00003D4FDF78BF903B050BD042300930833AA
:10530000FEF768FC70603460F5E7C04630B5040015
:10531000406883B0150000910192904204D00028AB
:1053200002D003685B0003D5009B28C403B030BDE6
:1053300006F028FBF8E7C04670B584B002AD0E0059
:10534000040008220021280006F028FB002E13DDAF
:105350003200731C5A4009D5002B07DAFDF756F9C5
:105360002300200006CD06C304B070BD701D43406D
:1053700006D50028F2DB05E0002302936B60EFE71F
:10538000002806DB012106F0EBFA02960660686051
:10539000E6E70023044AC11700920193002200238C
:1053A000FDF7B4FEDCE7C046FFFFFF7F0A4B10B5F8
:1053B0001B78002B03D0094C2068002800D110BDB9
:1053C000074B1B68002B00D0984720000021FDF7F9
:1053D0002DFA012003F06CFC441A0020081A00206A
:1053E0008C19002010B50B4C022021000AF008F99E
:1053F00021000B200AF004F9210006200AF000F930
:10540000210008200AF0FCF8210004200AF0F8F836
:1054100010BDC046854500101D4A1E4B10B51360D7
:105420001D4B20200421D360002350609160136144
:1054300053611A4C1A4A14601A4C50609160D4603F
:1054400013615361184C194A1460194C50609160F3
:10545000D4601361174C5361174A14605060916017
:10546000164C1361D4605361154C164A1460164CE7
:105470009160D460506013615361144A144C916080
:10548000144914605060D1601361536110BDC0466F
:10549000141A0020252700105C050110A927001010
:1054A000D01900208405011065280010B4190020CF
:1054B000C0050110E928001090190020FC0501101A
:1054C0006D290010EC19002024060110481A002054
:1054D000F129001050060110F0B54E464546DE4653
:1054E0005746E0B589B005AC0E0005000C2200213E
:1054F000200006F053FA002E00DA84E0730030003A
:10550000984605F02FFE0022444B05F0B2FDB04452
:10551000824640468B46894605F024FE06000F0071
:1055200002000B005046594605F0E6FD002821D048
:105530004346DB0F43445B10181D434050D5002801
:105540004EDAFDF763F8364B1B78002B07D10020AD
:10555000A36004220C210590FEF744FA60602B0042
:1055600007CC07C3280009B03CBC90469946A24628
:10557000AB46F0BD52465B463000390005F049FDB0
:1055800006000F000391002200233000390005F0CF
:10559000BBFD002805D0802212069446039B63447D
:1055A0001F00002200235046494605F0ADFD0028AB
:1055B00003D080231B065B4499460022194B300020
:1055C000390005F056FD52464B4605F0A3FD002874
:1055D000B7D04346DB0F43445B10181D4340AED4A5
:1055E000FCF7A2FD0E4B1B78002BB8D1A36000285E
:1055F000AFDA00230C4AC117009201930022002366
:10560000FDF784FDABE70023074A300000920193C9
:10561000F11700220023FDF779FDA0E70000084004
:10562000441A002000004040FFFFFF7F406810B593
:10563000002802D003685B0000D510BD0421FCF7F0
:10564000CDFFFAE7F0B5DE4657464E464546E0B593
:10565000036883B05B0004000068984605F082FD93
:1056600002000B0005F0DEFC050040468A46894634
:1056700005F078FD06000F0002000B0028005146DF
:1056800005F03AFD002831D12A0053463000390098
:1056900005F0BFFC06008B460F00002200233000FF
:1056A000594605F031FD00286ED100220023280064
:1056B000494605F029FD002803D080231B065344EA
:1056C00099460022454B3000390005F0D2FC2A00F3
:1056D0004B4605F01FFD002808D1FCF797FF03B0EB
:1056E0003CBC90469946A246AB46F0BD4346002BD3
:1056F00051DB04220C214046FEF774F923689946D9
:10570000636860609A46434623604B46002B56DD33
:1057100053461E1D0023324D98462B783768002BC8
:10572000DDD1002F0BD101239C46E044C8454AD06F
:105730002B780C363768002BD1D1002FF3D021689D
:10574000481E384081421BD96268430094461B18AA
:105750009B0063445A6894462A78002ABFD1624667
:10576000002A23D0431C584012D5002B10DAFCF736
:105770004DFF2B78002BB2D1002021688142E3D865
:105780000139FEF727FFAAE780273F065F448CE731
:10579000481E1840D6E7D9170023124A4046009207
:1057A000019300220023FDF7B1FC98E760463179B0
:1057B0003271B268B0601972DA605F60B3E7534665
:1057C000002B00D18BE753461B685B0000D586E7B2
:1057D00004215046FCF702FF81E7C046000040402C
:1057E000441A0020FFFFFF7FF0B5DE4645465746CE
:1057F0004E46E0B503688FB08346984605910B92FC
:10580000002B00D1F9E043680A93CA4B9946059BE7
:10581000C94CCA4A5C4020000023002106F02CF845
:1058200000230600C64A20008A46002106F024F81C
:10583000002204000D00330012196B41994200D878
:10584000C3E00020BF4900248018594100230126ED
:1058500000270293039452460023BB4CBB4D121900
:105860006B41029C039D12196B4192197B411E00F2
:105870004B4614001B7844404E40002B00D09DE066
:1058800000233000B24A002105F0F6FF00238A46CB
:10589000B04A06900021200005F0EEFF002305002D
:1058A0000F002000AA4A002105F0E6FF0022069B17
:1058B0000290039102980399801859412B0000220D
:1058C00004000D00A4185D41524608940995002378
:1058D0003C00002506900791A4185D41300000238C
:1058E0009C4A002105F0C8FF039A00196941069BF4
:1058F000079C01260027A24203D800D1E3E100263D
:105900000027089A099B36184F41069807990124E9
:10591000002502960397994203D800D1CDE10024D7
:105920000025029E039F089A099B36196F411400B7
:105930007440964200D1884C4346002B00D1C8E108
:10594000200047465E1E30400500B84221D20A9A28
:105950004946944643001B189B00097863445A68E3
:1059600000292BD1002A63D0A24203D11B7A059AC9
:1059700093425FD0431C58403CD5002B3ADAFCF7E9
:1059800045FE4B461B78002B18D100200500B8427D
:10599000DDD33100FEF71EFE4B461B78002B0DD1E8
:1059A000002500205B461968A94200D877E15A68B3
:1059B0004300181880000B9B1018C3600FB03CBC4C
:1059C00090469946A246AB46F0BD994202D190421C
:1059D00000D936E700205B49012580185941002491
:1059E0008B4202D821D000250024002600270295F2
:1059F000039430E733401800A6E73420FCF794FB0B
:105A00004C4B99461B78002BD8D15A4693600028FE
:105A100000DA48E110600C210422FDF7E3FF5B4649
:105A200058601B680A909846F1E68242DDD8DAE7B2
:105A3000C04305000028B5DA5B461B689A46002B78
:105A400000D148E15B469B680893534507DB434B15
:105A500003CBFCF7ADFA4B461B78002BAED1534677
:105A600050465E000A9605F07DFB02000B0005F033
:105A7000D9FA029030008846069105F073FB0600C3
:105A80000F0002000B000298414605F035FB00288C
:105A900068D1434630003900029A05F0BAFA002274
:105AA000002306000F000C9105F02EFB002800D00B
:105AB0002EE1002200234146029805F025FB002834
:105AC00000D01EE10022264B3000390005F0D1FA4B
:105AD0004346029A05F01EFB002843D1FCF796FDD1
